{
  "contractName": "PerpetualDEX",
  "abi": [
    {
      "inputs": [
        {
          "internalType": "address",
          "name": "_collateralToken",
          "type": "address"
        }
      ],
      "stateMutability": "nonpayable",
      "type": "constructor"
    },
    {
      "anonymous": false,
      "inputs": [
        {
          "indexed": false,
          "internalType": "uint256",
          "name": "fundingPayment",
          "type": "uint256"
        }
      ],
      "name": "FundingPaid",
      "type": "event"
    },
    {
      "anonymous": false,
      "inputs": [
        {
          "indexed": true,
          "internalType": "address",
          "name": "trader",
          "type": "address"
        },
        {
          "indexed": false,
          "internalType": "uint256",
          "name": "positionId",
          "type": "uint256"
        },
        {
          "indexed": false,
          "internalType": "uint256",
          "name": "size",
          "type": "uint256"
        },
        {
          "indexed": false,
          "internalType": "uint256",
          "name": "entryPrice",
          "type": "uint256"
        },
        {
          "indexed": false,
          "internalType": "enum PerpetualDEX.Side",
          "name": "side",
          "type": "uint8"
        },
        {
          "indexed": false,
          "internalType": "int256",
          "name": "profit",
          "type": "int256"
        }
      ],
      "name": "PositionClosed",
      "type": "event"
    },
    {
      "anonymous": false,
      "inputs": [
        {
          "indexed": true,
          "internalType": "address",
          "name": "trader",
          "type": "address"
        },
        {
          "indexed": false,
          "internalType": "uint256",
          "name": "positionId",
          "type": "uint256"
        },
        {
          "indexed": false,
          "internalType": "uint256",
          "name": "size",
          "type": "uint256"
        },
        {
          "indexed": false,
          "internalType": "uint256",
          "name": "entryPrice",
          "type": "uint256"
        },
        {
          "indexed": false,
          "internalType": "enum PerpetualDEX.Side",
          "name": "side",
          "type": "uint8"
        }
      ],
      "name": "PositionOpened",
      "type": "event"
    },
    {
      "inputs": [],
      "name": "admin",
      "outputs": [
        {
          "internalType": "address",
          "name": "",
          "type": "address"
        }
      ],
      "stateMutability": "view",
      "type": "function",
      "constant": true
    },
    {
      "inputs": [
        {
          "internalType": "address",
          "name": "",
          "type": "address"
        }
      ],
      "name": "collateralBalances",
      "outputs": [
        {
          "internalType": "int256",
          "name": "",
          "type": "int256"
        }
      ],
      "stateMutability": "view",
      "type": "function",
      "constant": true
    },
    {
      "inputs": [],
      "name": "collateralToken",
      "outputs": [
        {
          "internalType": "contract IXRC20",
          "name": "",
          "type": "address"
        }
      ],
      "stateMutability": "view",
      "type": "function",
      "constant": true
    },
    {
      "inputs": [],
      "name": "currentPrice",
      "outputs": [
        {
          "internalType": "uint256",
          "name": "",
          "type": "uint256"
        }
      ],
      "stateMutability": "view",
      "type": "function",
      "constant": true
    },
    {
      "inputs": [],
      "name": "feeRate",
      "outputs": [
        {
          "internalType": "uint256",
          "name": "",
          "type": "uint256"
        }
      ],
      "stateMutability": "view",
      "type": "function",
      "constant": true
    },
    {
      "inputs": [],
      "name": "fundingRate",
      "outputs": [
        {
          "internalType": "uint256",
          "name": "",
          "type": "uint256"
        }
      ],
      "stateMutability": "view",
      "type": "function",
      "constant": true
    },
    {
      "inputs": [],
      "name": "lastFundingTimestamp",
      "outputs": [
        {
          "internalType": "uint256",
          "name": "",
          "type": "uint256"
        }
      ],
      "stateMutability": "view",
      "type": "function",
      "constant": true
    },
    {
      "inputs": [
        {
          "internalType": "uint256",
          "name": "",
          "type": "uint256"
        }
      ],
      "name": "positions",
      "outputs": [
        {
          "internalType": "address",
          "name": "trader",
          "type": "address"
        },
        {
          "internalType": "uint256",
          "name": "size",
          "type": "uint256"
        },
        {
          "internalType": "uint256",
          "name": "entryPrice",
          "type": "uint256"
        },
        {
          "internalType": "enum PerpetualDEX.Side",
          "name": "side",
          "type": "uint8"
        }
      ],
      "stateMutability": "view",
      "type": "function",
      "constant": true
    },
    {
      "inputs": [
        {
          "internalType": "uint256",
          "name": "size",
          "type": "uint256"
        },
        {
          "internalType": "uint256",
          "name": "entryPrice",
          "type": "uint256"
        },
        {
          "internalType": "enum PerpetualDEX.Side",
          "name": "side",
          "type": "uint8"
        }
      ],
      "name": "openPosition",
      "outputs": [],
      "stateMutability": "nonpayable",
      "type": "function"
    },
    {
      "inputs": [
        {
          "internalType": "uint256",
          "name": "positionId",
          "type": "uint256"
        }
      ],
      "name": "closePosition",
      "outputs": [],
      "stateMutability": "nonpayable",
      "type": "function"
    },
    {
      "inputs": [
        {
          "internalType": "uint256",
          "name": "newPrice",
          "type": "uint256"
        }
      ],
      "name": "updatecurrentPrice",
      "outputs": [],
      "stateMutability": "nonpayable",
      "type": "function"
    },
    {
      "inputs": [],
      "name": "payFunding",
      "outputs": [],
      "stateMutability": "nonpayable",
      "type": "function"
    },
    {
      "inputs": [
        {
          "internalType": "address",
          "name": "to",
          "type": "address"
        },
        {
          "internalType": "uint256",
          "name": "value",
          "type": "uint256"
        }
      ],
      "name": "transferTokens",
      "outputs": [],
      "stateMutability": "nonpayable",
      "type": "function"
    },
    {
      "inputs": [
        {
          "internalType": "address",
          "name": "owner",
          "type": "address"
        }
      ],
      "name": "getTokenBalance",
      "outputs": [
        {
          "internalType": "uint256",
          "name": "",
          "type": "uint256"
        }
      ],
      "stateMutability": "view",
      "type": "function",
      "constant": true
    },
    {
      "inputs": [
        {
          "internalType": "int256",
          "name": "x",
          "type": "int256"
        }
      ],
      "name": "absoluteValue",
      "outputs": [
        {
          "internalType": "uint256",
          "name": "",
          "type": "uint256"
        }
      ],
      "stateMutability": "pure",
      "type": "function",
      "constant": true
    }
  ],
  "bytecode": "0x60806040523480156200001157600080fd5b50604051620023713803806200237183398181016040528101906200003791906200014a565b336000806101000a81548173ffffffffffffffffffffffffffffffffffffffff021916908373ffffffffffffffffffffffffffffffffffffffff16021790555080600160006101000a81548173ffffffffffffffffffffffffffffffffffffffff021916908373ffffffffffffffffffffffffffffffffffffffff1602179055504260028190555060006003819055506103e86004819055506101f4600581905550506200017c565b600080fd5b600073ffffffffffffffffffffffffffffffffffffffff82169050919050565b60006200011282620000e5565b9050919050565b620001248162000105565b81146200013057600080fd5b50565b600081519050620001448162000119565b92915050565b600060208284031215620001635762000162620000e0565b5b6000620001738482850162000133565b91505092915050565b6121e5806200018c6000396000f3fe608060405234801561001057600080fd5b50600436106100f55760003560e01c80639d1b464a11610097578063b2016bd411610066578063b2016bd414610263578063bec3fa1714610281578063e149e7b01461029d578063f851a440146102cd576100f5565b80639d1b464a14610203578063a126d60114610221578063aaa5a2ad1461023d578063ab6d477814610247576100f5565b80635fbf81cc116100d35780635fbf81cc1461017857806393ca341514610194578063978bbdb9146101b257806399fbab88146101d0576100f5565b806329bc969d146100fa5780633aecd0e31461012a57806341d3c84c1461015a575b600080fd5b610114600480360381019061010f91906115f1565b6102eb565b6040516101219190611637565b60405180910390f35b610144600480360381019061013f91906115f1565b610303565b604051610151919061166b565b60405180910390f35b6101626103a8565b60405161016f919061166b565b60405180910390f35b610192600480360381019061018d91906116d7565b6103ae565b005b61019c6106b4565b6040516101a9919061166b565b60405180910390f35b6101ba6106ba565b6040516101c7919061166b565b60405180910390f35b6101ea60048036038101906101e5919061172a565b6106c0565b6040516101fa94939291906117dd565b60405180910390f35b61020b61072d565b604051610218919061166b565b60405180910390f35b61023b6004803603810190610236919061172a565b610733565b005b610245611073565b005b610261600480360381019061025c919061172a565b6111b1565b005b61026b611276565b6040516102789190611881565b60405180910390f35b61029b6004803603810190610296919061189c565b61129c565b005b6102b760048036038101906102b29190611908565b61137f565b6040516102c4919061166b565b60405180910390f35b6102d56113a3565b6040516102e29190611935565b60405180910390f35b60076020528060005260406000206000915090505481565b6000600160009054906101000a900473ffffffffffffffffffffffffffffffffffffffff1673ffffffffffffffffffffffffffffffffffffffff166370a08231836040518263ffffffff1660e01b81526004016103609190611935565b602060405180830381865afa15801561037d573d6000803e3d6000fd5b505050506040513d601f19601f820116820180604052508101906103a19190611965565b9050919050565b60035481565b600083116103f1576040517f08c379a00000000000000000000000000000000000000000000000000000000081526004016103e8906119ef565b60405180910390fd5b60008211610434576040517f08c379a000000000000000000000000000000000000000000000000000000000815260040161042b90611a81565b60405180910390fd5b6000600181111561044857610447611766565b5b81600181111561045b5761045a611766565b5b148061048a575060018081111561047557610474611766565b5b81600181111561048857610487611766565b5b145b6104c9576040517f08c379a00000000000000000000000000000000000000000000000000000000081526004016104c090611aed565b60405180910390fd5b6000670de0b6b3a764000083856104e09190611b3c565b6104ea9190611bad565b9050600660405180608001604052803373ffffffffffffffffffffffffffffffffffffffff16815260200186815260200185815260200184600181111561053457610533611766565b5b815250908060018154018082558091505060019003906000526020600020906004020160009091909190915060008201518160000160006101000a81548173ffffffffffffffffffffffffffffffffffffffff021916908373ffffffffffffffffffffffffffffffffffffffff160217905550602082015181600101556040820151816002015560608201518160030160006101000a81548160ff021916908360018111156105e6576105e5611766565b5b0217905550505080600760003373ffffffffffffffffffffffffffffffffffffffff1673ffffffffffffffffffffffffffffffffffffffff168152602001908152602001600020600082825461063c9190611bde565b92505081905550600060016006805490506106579190611c22565b90503373ffffffffffffffffffffffffffffffffffffffff167f22525261af7a4917e8be47f89149ad7abb0d81058d0a105e9756a4e40bd5b2e8828787876040516106a59493929190611c56565b60405180910390a25050505050565b60025481565b60055481565b600681815481106106d057600080fd5b90600052602060002090600402016000915090508060000160009054906101000a900473ffffffffffffffffffffffffffffffffffffffff16908060010154908060020154908060030160009054906101000a900460ff16905084565b60045481565b600680549050811061077a576040517f08c379a000000000000000000000000000000000000000000000000000000000815260040161077190611ce7565b60405180910390fd5b6000600682815481106107905761078f611d07565b5b906000526020600020906004020190503373ffffffffffffffffffffffffffffffffffffffff168160000160009054906101000a900473ffffffffffffffffffffffffffffffffffffffff1673ffffffffffffffffffffffffffffffffffffffff1614610832576040517f08c379a000000000000000000000000000000000000000000000000000000000815260040161082990611da8565b60405180910390fd5b60008160010154905060008260020154905060008360030160009054906101000a900460ff1690506000610865866113c7565b90506000610872876114c7565b90506000612710600554836108879190611b3c565b6108919190611bad565b9050600081846108a19190611dc8565b905081600760008060009054906101000a900473ffffffffffffffffffffffffffffffffffffffff1673ffffffffffffffffffffffffffffffffffffffff1673ffffffffffffffffffffffffffffffffffffffff16815260200190815260200160002060008282546109139190611bde565b9250508190555060008161092690611e0b565b9050600082856109369190611bde565b905060008113156109eb57600160009054906101000a900473ffffffffffffffffffffffffffffffffffffffff1673ffffffffffffffffffffffffffffffffffffffff1663a9059cbb336109898461137f565b6040518363ffffffff1660e01b81526004016109a6929190611e53565b6020604051808303816000875af11580156109c5573d6000803e3d6000fd5b505050506040513d601f19601f820116820180604052508101906109e99190611eb4565b505b84836109f690611e0b565b1315610ad95784600760003373ffffffffffffffffffffffffffffffffffffffff1673ffffffffffffffffffffffffffffffffffffffff1681526020019081526020016000206000828254610a4b9190611dc8565b925050819055508483610a5e9190611bde565b600760008060009054906101000a900473ffffffffffffffffffffffffffffffffffffffff1673ffffffffffffffffffffffffffffffffffffffff1673ffffffffffffffffffffffffffffffffffffffff1681526020019081526020016000206000828254610acd9190611bde565b92505081905550610c0c565b6000831315610b3d5784600760003373ffffffffffffffffffffffffffffffffffffffff1673ffffffffffffffffffffffffffffffffffffffff1681526020019081526020016000206000828254610b319190611dc8565b92505081905550610b94565b80600760003373ffffffffffffffffffffffffffffffffffffffff1673ffffffffffffffffffffffffffffffffffffffff1681526020019081526020016000206000828254610b8c9190611dc8565b925050819055505b81600760008060009054906101000a900473ffffffffffffffffffffffffffffffffffffffff1673ffffffffffffffffffffffffffffffffffffffff1673ffffffffffffffffffffffffffffffffffffffff1681526020019081526020016000206000828254610c049190611bde565b925050819055505b670de0b6b3a764000089600454610c239190611b3c565b610c2d9190611ee1565b600760003373ffffffffffffffffffffffffffffffffffffffff1673ffffffffffffffffffffffffffffffffffffffff1681526020019081526020016000206000828254610c7b9190611bde565b925050819055506000600760003373ffffffffffffffffffffffffffffffffffffffff1673ffffffffffffffffffffffffffffffffffffffff168152602001908152602001600020541215610d8e57600760003373ffffffffffffffffffffffffffffffffffffffff1673ffffffffffffffffffffffffffffffffffffffff16815260200190815260200160002054610d1390611e0b565b600760008060009054906101000a900473ffffffffffffffffffffffffffffffffffffffff1673ffffffffffffffffffffffffffffffffffffffff1673ffffffffffffffffffffffffffffffffffffffff1681526020019081526020016000206000828254610d829190611dc8565b92505081905550610e45565b600760003373ffffffffffffffffffffffffffffffffffffffff1673ffffffffffffffffffffffffffffffffffffffff16815260200190815260200160002054600760008060009054906101000a900473ffffffffffffffffffffffffffffffffffffffff1673ffffffffffffffffffffffffffffffffffffffff1673ffffffffffffffffffffffffffffffffffffffff1681526020019081526020016000206000828254610e3d9190611bde565b925050819055505b6000600760003373ffffffffffffffffffffffffffffffffffffffff1673ffffffffffffffffffffffffffffffffffffffff168152602001908152602001600020819055503373ffffffffffffffffffffffffffffffffffffffff167f0657ca74d3c423c82ac61c84019026720ba0aa095787904277eb95642b701b5e8c8b8b8b88604051610ed8959493929190611f4b565b60405180910390a260066001600680549050610ef49190611c22565b81548110610f0557610f04611d07565b5b906000526020600020906004020160068c81548110610f2757610f26611d07565b5b90600052602060002090600402016000820160009054906101000a900473ffffffffffffffffffffffffffffffffffffffff168160000160006101000a81548173ffffffffffffffffffffffffffffffffffffffff021916908373ffffffffffffffffffffffffffffffffffffffff16021790555060018201548160010155600282015481600201556003820160009054906101000a900460ff168160030160006101000a81548160ff02191690836001811115610fe857610fe7611766565b5b0217905550905050600680548061100257611001611f9e565b5b6001900381819060005260206000209060040201600080820160006101000a81549073ffffffffffffffffffffffffffffffffffffffff0219169055600182016000905560028201600090556003820160006101000a81549060ff0219169055505090555050505050505050505050565b6000600254426110839190611c22565b9050600081116110c8576040517f08c379a00000000000000000000000000000000000000000000000000000000081526004016110bf90612019565b60405180910390fd5b600062015180826003546006805490506110e29190611b3c565b6110ec9190611b3c565b6110f69190611bad565b905080600760008060009054906101000a900473ffffffffffffffffffffffffffffffffffffffff1673ffffffffffffffffffffffffffffffffffffffff1673ffffffffffffffffffffffffffffffffffffffff16815260200190815260200160002060008282546111689190611bde565b925050819055507f7052e674e5d83ba741a3bc9f3675ddb61e9472cf8470386d1c2a21ed9c0b87fc8160405161119e919061166b565b60405180910390a1426002819055505050565b60008054906101000a900473ffffffffffffffffffffffffffffffffffffffff1673ffffffffffffffffffffffffffffffffffffffff163373ffffffffffffffffffffffffffffffffffffffff161461123f576040517f08c379a0000000000000000000000000000000000000000000000000000000008152600401611236906120ab565b60405180910390fd5b806004819055506000600254426112569190611c22565b905060008111156112725761126a81611529565b426002819055505b5050565b600160009054906101000a900473ffffffffffffffffffffffffffffffffffffffff1681565b600160009054906101000a900473ffffffffffffffffffffffffffffffffffffffff1673ffffffffffffffffffffffffffffffffffffffff1663a9059cbb83836040518363ffffffff1660e01b81526004016112f9929190611e53565b6020604051808303816000875af1158015611318573d6000803e3d6000fd5b505050506040513d601f19601f8201168201806040525081019061133c9190611eb4565b61137b576040517f08c379a000000000000000000000000000000000000000000000000000000000815260040161137290612117565b60405180910390fd5b5050565b60008082121561139a578161139390611e0b565b905061139e565b8190505b919050565b60008054906101000a900473ffffffffffffffffffffffffffffffffffffffff1681565b600080600683815481106113de576113dd611d07565b5b9060005260206000209060040201905060008160010154905060008260020154905060008360030160009054906101000a900460ff1690506000600181111561142a57611429611766565b5b81600181111561143d5761143c611766565b5b0361148457670de0b6b3a764000083836114579190611b3c565b846004546114659190611b3c565b61146f9190611c22565b6114799190612137565b9450505050506114c2565b670de0b6b3a76400008360045461149b9190611b3c565b84846114a79190611b3c565b6114b19190611c22565b6114bb9190612137565b9450505050505b919050565b600080600683815481106114de576114dd611d07565b5b90600052602060002090600402019050600081600101549050600082600201549050670de0b6b3a764000082826115159190611b3c565b61151f9190611b3c565b9350505050919050565b6004548162015180670de0b6b3a76400006004546115479190611b3c565b670de0b6b3a764000060045461155d9190611b3c565b6115679190611c22565b6115719190611b3c565b61157b9190611bad565b6115859190611bad565b60038190555050565b600080fd5b600073ffffffffffffffffffffffffffffffffffffffff82169050919050565b60006115be82611593565b9050919050565b6115ce816115b3565b81146115d957600080fd5b50565b6000813590506115eb816115c5565b92915050565b6000602082840312156116075761160661158e565b5b6000611615848285016115dc565b91505092915050565b6000819050919050565b6116318161161e565b82525050565b600060208201905061164c6000830184611628565b92915050565b6000819050919050565b61166581611652565b82525050565b6000602082019050611680600083018461165c565b92915050565b61168f81611652565b811461169a57600080fd5b50565b6000813590506116ac81611686565b92915050565b600281106116bf57600080fd5b50565b6000813590506116d1816116b2565b92915050565b6000806000606084860312156116f0576116ef61158e565b5b60006116fe8682870161169d565b935050602061170f8682870161169d565b9250506040611720868287016116c2565b9150509250925092565b6000602082840312156117405761173f61158e565b5b600061174e8482850161169d565b91505092915050565b611760816115b3565b82525050565b7f4e487b7100000000000000000000000000000000000000000000000000000000600052602160045260246000fd5b600281106117a6576117a5611766565b5b50565b60008190506117b782611795565b919050565b60006117c7826117a9565b9050919050565b6117d7816117bc565b82525050565b60006080820190506117f26000830187611757565b6117ff602083018661165c565b61180c604083018561165c565b61181960608301846117ce565b95945050505050565b6000819050919050565b600061184761184261183d84611593565b611822565b611593565b9050919050565b60006118598261182c565b9050919050565b600061186b8261184e565b9050919050565b61187b81611860565b82525050565b60006020820190506118966000830184611872565b92915050565b600080604083850312156118b3576118b261158e565b5b60006118c1858286016115dc565b92505060206118d28582860161169d565b9150509250929050565b6118e58161161e565b81146118f057600080fd5b50565b600081359050611902816118dc565b92915050565b60006020828403121561191e5761191d61158e565b5b600061192c848285016118f3565b91505092915050565b600060208201905061194a6000830184611757565b92915050565b60008151905061195f81611686565b92915050565b60006020828403121561197b5761197a61158e565b5b600061198984828501611950565b91505092915050565b600082825260208201905092915050565b7f53697a65206d7573742062652067726561746572207468616e20300000000000600082015250565b60006119d9601b83611992565b91506119e4826119a3565b602082019050919050565b60006020820190508181036000830152611a08816119cc565b9050919050565b7f456e747279207072696365206d7573742062652067726561746572207468616e60008201527f2030000000000000000000000000000000000000000000000000000000000000602082015250565b6000611a6b602283611992565b9150611a7682611a0f565b604082019050919050565b60006020820190508181036000830152611a9a81611a5e565b9050919050565b7f496e76616c696420736964650000000000000000000000000000000000000000600082015250565b6000611ad7600c83611992565b9150611ae282611aa1565b602082019050919050565b60006020820190508181036000830152611b0681611aca565b9050919050565b7f4e487b7100000000000000000000000000000000000000000000000000000000600052601160045260246000fd5b6000611b4782611652565b9150611b5283611652565b9250828202611b6081611652565b91508282048414831517611b7757611b76611b0d565b5b5092915050565b7f4e487b7100000000000000000000000000000000000000000000000000000000600052601260045260246000fd5b6000611bb882611652565b9150611bc383611652565b925082611bd357611bd2611b7e565b5b828204905092915050565b6000611be98261161e565b9150611bf48361161e565b925082820190508281121560008312168382126000841215161715611c1c57611c1b611b0d565b5b92915050565b6000611c2d82611652565b9150611c3883611652565b9250828203905081811115611c5057611c4f611b0d565b5b92915050565b6000608082019050611c6b600083018761165c565b611c78602083018661165c565b611c85604083018561165c565b611c9260608301846117ce565b95945050505050565b7f506f736974696f6e20646f6573206e6f74206578697374000000000000000000600082015250565b6000611cd1601783611992565b9150611cdc82611c9b565b602082019050919050565b60006020820190508181036000830152611d0081611cc4565b9050919050565b7f4e487b7100000000000000000000000000000000000000000000000000000000600052603260045260246000fd5b7f4f6e6c7920746865206f776e65722063616e20636c6f73652074686520706f7360008201527f6974696f6e000000000000000000000000000000000000000000000000000000602082015250565b6000611d92602583611992565b9150611d9d82611d36565b604082019050919050565b60006020820190508181036000830152611dc181611d85565b9050919050565b6000611dd38261161e565b9150611dde8361161e565b9250828203905081811260008412168282136000851215161715611e0557611e04611b0d565b5b92915050565b6000611e168261161e565b91507f80000000000000000000000000000000000000000000000000000000000000008203611e4857611e47611b0d565b5b816000039050919050565b6000604082019050611e686000830185611757565b611e75602083018461165c565b9392505050565b60008115159050919050565b611e9181611e7c565b8114611e9c57600080fd5b50565b600081519050611eae81611e88565b92915050565b600060208284031215611eca57611ec961158e565b5b6000611ed884828501611e9f565b91505092915050565b6000611eec8261161e565b9150611ef78361161e565b925082611f0757611f06611b7e565b5b600160000383147f800000000000000000000000000000000000000000000000000000000000000083141615611f4057611f3f611b0d565b5b828205905092915050565b600060a082019050611f60600083018861165c565b611f6d602083018761165c565b611f7a604083018661165c565b611f8760608301856117ce565b611f946080830184611628565b9695505050505050565b7f4e487b7100000000000000000000000000000000000000000000000000000000600052603160045260246000fd5b7f4e6f742074696d6520666f722066756e64696e67207061796d656e7420796574600082015250565b6000612003602083611992565b915061200e82611fcd565b602082019050919050565b6000602082019050818103600083015261203281611ff6565b9050919050565b7f4f6e6c792061646d696e2063616e2075706461746520696e646578207072696360008201527f6500000000000000000000000000000000000000000000000000000000000000602082015250565b6000612095602183611992565b91506120a082612039565b604082019050919050565b600060208201905081810360008301526120c481612088565b9050919050565b7f546f6b656e207472616e73666572206661696c65640000000000000000000000600082015250565b6000612101601583611992565b915061210c826120cb565b602082019050919050565b60006020820190508181036000830152612130816120f4565b9050919050565b60006121428261161e565b915061214d8361161e565b925082820261215b8161161e565b91507f8000000000000000000000000000000000000000000000000000000000000000841460008412161561219357612192611b0d565b5b82820584148315176121a8576121a7611b0d565b5b509291505056fea2646970667358221220896b4aeaf5c6c707bc2d7c3681915c8115077d7502a87fe5b42a442266598fc464736f6c63430008110033",
  "immutableReferences": {},
  "source": "// SPDX-License-Identifier: MIT\r\npragma solidity ^0.8.17;\r\n\r\nimport \"./IXRC20.sol\";\r\n\r\ncontract PerpetualDEX {\r\n    address public admin;\r\n    IXRC20 public collateralToken;\r\n    uint256 public lastFundingTimestamp;\r\n    uint256 public fundingRate;\r\n    uint256 public currentPrice;\r\n    uint256 public feeRate; // Trading fee rate, e.g., 0.005 for 0.5%\r\n\r\n    enum Side { LONG, SHORT }\r\n\r\n    struct Position {\r\n        address trader;\r\n        uint256 size;\r\n        uint256 entryPrice;\r\n        Side side;\r\n    }\r\n\r\n    Position[] public positions;\r\n    mapping(address => int256) public collateralBalances;\r\n\r\n    event PositionOpened(address indexed trader, uint256 positionId, uint256 size, uint256 entryPrice, Side side);\r\n    event PositionClosed(address indexed trader, uint256 positionId, uint256 size, uint256 entryPrice, Side side, int256 profit);\r\n    event FundingPaid(uint256 fundingPayment);\r\n\r\n    constructor(address _collateralToken) {\r\n        admin = msg.sender;\r\n        collateralToken = IXRC20(_collateralToken);\r\n        lastFundingTimestamp = block.timestamp;\r\n        fundingRate = 0;\r\n        currentPrice = 1000; // Initial index price\r\n        feeRate = 500; // 0.5% fee\r\n    }\r\n\r\n    function openPosition(uint256 size, uint256 entryPrice, Side side) external {\r\n        require(size > 0, \"Size must be greater than 0\");\r\n        require(entryPrice > 0, \"Entry price must be greater than 0\");\r\n        require(side == Side.LONG || side == Side.SHORT, \"Invalid side\");\r\n\r\n        // Calculate collateral required\r\n        uint256 collateralRequired = (size * entryPrice)  / 1e18;\r\n\r\n        positions.push(Position({\r\n            trader: msg.sender,\r\n            size: size,\r\n            entryPrice: entryPrice,\r\n            side: side\r\n        }));\r\n\r\n        collateralBalances[msg.sender] += int256(collateralRequired);\r\n\r\n        uint256 positionId = positions.length - 1;\r\n        emit PositionOpened(msg.sender, positionId, size, entryPrice, side);\r\n    }\r\n\r\n    function closePosition(uint256 positionId) external {\r\n        require(positionId < positions.length, \"Position does not exist\");\r\n\r\n        Position storage position = positions[positionId];\r\n        require(position.trader == msg.sender, \"Only the owner can close the position\");\r\n\r\n        uint256 size = position.size;\r\n        uint256 entryPrice = position.entryPrice;\r\n        Side side = position.side;\r\n\r\n        int256 pnl = calculateProfitAndLoss(positionId);\r\n        uint256 initialCost = getCostOfOpeningPosition(positionId);\r\n        uint256 fee = (uint256(initialCost) * feeRate) / 1e4;\r\n        int256 profit = pnl - int256(fee);\r\n        collateralBalances[admin] += int256(fee);\r\n        \r\n        int256 adminGets = -profit;\r\n        int256 traderGets = int256(initialCost) + profit;\r\n        if(traderGets > 0){\r\n            collateralToken.transfer(msg.sender, absoluteValue(traderGets));\r\n        }\r\n        \r\n        if(-profit > int256(initialCost)){\r\n            collateralBalances[msg.sender] -= int256(initialCost);\r\n            collateralBalances[admin] += profit + int256(initialCost);\r\n        } else\r\n        {\r\n            if(profit > 0)\r\n                collateralBalances[msg.sender] -= int256(initialCost);\r\n            else {\r\n                collateralBalances[msg.sender] -= traderGets;\r\n            }\r\n\r\n            collateralBalances[admin] += adminGets;\r\n        }\r\n\r\n        collateralBalances[msg.sender] += int256(currentPrice * size) / 1e18;\r\n        \r\n        if(collateralBalances[msg.sender] < 0) {\r\n            collateralBalances[admin] -= -collateralBalances[msg.sender];\r\n        } else {\r\n            collateralBalances[admin] += collateralBalances[msg.sender];\r\n        }\r\n        collateralBalances[msg.sender] = 0;\r\n\r\n        emit PositionClosed(msg.sender, positionId, size, entryPrice, side, profit);\r\n\r\n        // Remove the closed position by moving the last position to this index and truncating the array\r\n        positions[positionId] = positions[positions.length - 1];\r\n        positions.pop();\r\n    }\r\n\r\n    function calculateProfitAndLoss(uint256 positionId) internal view returns (int256) {\r\n        Position storage position = positions[positionId];\r\n        uint256 size = position.size;\r\n        uint256 entryPrice = position.entryPrice;\r\n        Side side = position.side;\r\n\r\n        if (side == Side.LONG) {\r\n            return int256(currentPrice * size - entryPrice * size) * 1e18;\r\n        } else {\r\n            return int256(entryPrice * size - currentPrice * size) * 1e18;\r\n        }\r\n    }\r\n\r\n    function getCostOfOpeningPosition(uint256 positionId) internal view returns (uint256) {\r\n        Position storage position = positions[positionId];\r\n        uint256 size = position.size;\r\n        uint256 entryPrice = position.entryPrice;\r\n        return entryPrice * size * 1e18;\r\n    }\r\n\r\n    function updatecurrentPrice(uint256 newPrice) external {\r\n        require(msg.sender == admin, \"Only admin can update index price\");\r\n        currentPrice = newPrice;\r\n        uint256 timeElapsed = block.timestamp - lastFundingTimestamp;\r\n        if (timeElapsed > 0) {\r\n            updateFundingRate(timeElapsed);\r\n            lastFundingTimestamp = block.timestamp;\r\n        }\r\n    }\r\n\r\n    function updateFundingRate(uint256 timeElapsed) internal {\r\n        // Implement a mechanism to calculate and update the funding rate based on timeElapsed.\r\n        // This is a placeholder for educational purposes.\r\n        // Formula: fundingRate = (currentPrice - previouscurrentPrice) / previouscurrentPrice * 86400 / timeElapsed\r\n        fundingRate = (currentPrice * 1e18 - currentPrice * 1e18) * 86400 / timeElapsed / currentPrice;\r\n    }\r\n\r\n    function payFunding() external {\r\n        uint256 timeElapsed = block.timestamp - lastFundingTimestamp;\r\n        require(timeElapsed > 0, \"Not time for funding payment yet\");\r\n        uint256 fundingPayment = (positions.length * fundingRate * timeElapsed) / 86400;\r\n        collateralBalances[admin] += int256(fundingPayment);\r\n        emit FundingPaid(fundingPayment);\r\n        lastFundingTimestamp = block.timestamp;\r\n    }\r\n\r\n    function transferTokens(address to, uint256 value) public {\r\n        require(collateralToken.transfer(to, value), \"Token transfer failed\");\r\n    }\r\n\r\n    function getTokenBalance(address owner) public view returns (uint256) {\r\n        return collateralToken.balanceOf(owner);\r\n    }\r\n\r\n    function absoluteValue(int256 x) public pure returns (uint256) {\r\n        if (x < 0) {\r\n            return uint256(-x);\r\n        }\r\n        return uint256(x); \r\n    }\r\n}",
  "sourcePath": "C:\\development\\ebc\\blockchain-contracts\\contracts\\PerpectualDex.sol",
  "compiler": {
    "name": "solc",
    "version": "0.8.17+commit.8df45f5f.Emscripten.clang"
  },
  "schemaVersion": "3.4.11",
  "updatedAt": "2023-10-25T15:22:47.992Z",
  "networkType": "ethereum",
  "devdoc": {
    "kind": "dev",
    "methods": {},
    "version": 1
  },
  "userdoc": {
    "kind": "user",
    "methods": {},
    "version": 1
  }
}