{
  "contractName": "PerpetualDEX",
  "abi": [
    {
      "inputs": [
        {
          "internalType": "address",
          "name": "_collateralToken",
          "type": "address"
        }
      ],
      "stateMutability": "nonpayable",
      "type": "constructor"
    },
    {
      "anonymous": false,
      "inputs": [
        {
          "indexed": false,
          "internalType": "uint256",
          "name": "fundingPayment",
          "type": "uint256"
        }
      ],
      "name": "FundingPaid",
      "type": "event"
    },
    {
      "anonymous": false,
      "inputs": [
        {
          "indexed": true,
          "internalType": "address",
          "name": "trader",
          "type": "address"
        },
        {
          "indexed": false,
          "internalType": "uint256",
          "name": "positionId",
          "type": "uint256"
        },
        {
          "indexed": false,
          "internalType": "uint256",
          "name": "size",
          "type": "uint256"
        },
        {
          "indexed": false,
          "internalType": "uint256",
          "name": "entryPrice",
          "type": "uint256"
        },
        {
          "indexed": false,
          "internalType": "enum PerpetualDEX.Side",
          "name": "side",
          "type": "uint8"
        },
        {
          "indexed": false,
          "internalType": "int256",
          "name": "profit",
          "type": "int256"
        }
      ],
      "name": "PositionClosed",
      "type": "event"
    },
    {
      "anonymous": false,
      "inputs": [
        {
          "indexed": true,
          "internalType": "address",
          "name": "trader",
          "type": "address"
        },
        {
          "indexed": false,
          "internalType": "uint256",
          "name": "positionId",
          "type": "uint256"
        },
        {
          "indexed": false,
          "internalType": "uint256",
          "name": "size",
          "type": "uint256"
        },
        {
          "indexed": false,
          "internalType": "uint256",
          "name": "entryPrice",
          "type": "uint256"
        },
        {
          "indexed": false,
          "internalType": "enum PerpetualDEX.Side",
          "name": "side",
          "type": "uint8"
        }
      ],
      "name": "PositionOpened",
      "type": "event"
    },
    {
      "inputs": [],
      "name": "admin",
      "outputs": [
        {
          "internalType": "address",
          "name": "",
          "type": "address"
        }
      ],
      "stateMutability": "view",
      "type": "function",
      "constant": true
    },
    {
      "inputs": [
        {
          "internalType": "address",
          "name": "",
          "type": "address"
        }
      ],
      "name": "collateralBalances",
      "outputs": [
        {
          "internalType": "int256",
          "name": "",
          "type": "int256"
        }
      ],
      "stateMutability": "view",
      "type": "function",
      "constant": true
    },
    {
      "inputs": [],
      "name": "collateralToken",
      "outputs": [
        {
          "internalType": "contract IXRC20",
          "name": "",
          "type": "address"
        }
      ],
      "stateMutability": "view",
      "type": "function",
      "constant": true
    },
    {
      "inputs": [],
      "name": "currentPrice",
      "outputs": [
        {
          "internalType": "uint256",
          "name": "",
          "type": "uint256"
        }
      ],
      "stateMutability": "view",
      "type": "function",
      "constant": true
    },
    {
      "inputs": [],
      "name": "feeRate",
      "outputs": [
        {
          "internalType": "uint256",
          "name": "",
          "type": "uint256"
        }
      ],
      "stateMutability": "view",
      "type": "function",
      "constant": true
    },
    {
      "inputs": [],
      "name": "fundingRate",
      "outputs": [
        {
          "internalType": "uint256",
          "name": "",
          "type": "uint256"
        }
      ],
      "stateMutability": "view",
      "type": "function",
      "constant": true
    },
    {
      "inputs": [],
      "name": "lastFundingTimestamp",
      "outputs": [
        {
          "internalType": "uint256",
          "name": "",
          "type": "uint256"
        }
      ],
      "stateMutability": "view",
      "type": "function",
      "constant": true
    },
    {
      "inputs": [
        {
          "internalType": "uint256",
          "name": "",
          "type": "uint256"
        }
      ],
      "name": "positions",
      "outputs": [
        {
          "internalType": "address",
          "name": "trader",
          "type": "address"
        },
        {
          "internalType": "uint256",
          "name": "size",
          "type": "uint256"
        },
        {
          "internalType": "uint256",
          "name": "entryPrice",
          "type": "uint256"
        },
        {
          "internalType": "enum PerpetualDEX.Side",
          "name": "side",
          "type": "uint8"
        },
        {
          "internalType": "enum PerpetualDEX.State",
          "name": "state",
          "type": "uint8"
        }
      ],
      "stateMutability": "view",
      "type": "function",
      "constant": true
    },
    {
      "inputs": [
        {
          "internalType": "uint256",
          "name": "size",
          "type": "uint256"
        },
        {
          "internalType": "uint256",
          "name": "entryPrice",
          "type": "uint256"
        },
        {
          "internalType": "enum PerpetualDEX.Side",
          "name": "side",
          "type": "uint8"
        }
      ],
      "name": "openPosition",
      "outputs": [],
      "stateMutability": "nonpayable",
      "type": "function"
    },
    {
      "inputs": [
        {
          "internalType": "uint256",
          "name": "positionId",
          "type": "uint256"
        }
      ],
      "name": "closePosition",
      "outputs": [],
      "stateMutability": "nonpayable",
      "type": "function"
    },
    {
      "inputs": [
        {
          "internalType": "uint256",
          "name": "newPrice",
          "type": "uint256"
        }
      ],
      "name": "updatecurrentPrice",
      "outputs": [],
      "stateMutability": "nonpayable",
      "type": "function"
    },
    {
      "inputs": [],
      "name": "payFunding",
      "outputs": [],
      "stateMutability": "nonpayable",
      "type": "function"
    },
    {
      "inputs": [
        {
          "internalType": "address",
          "name": "to",
          "type": "address"
        },
        {
          "internalType": "uint256",
          "name": "value",
          "type": "uint256"
        }
      ],
      "name": "transferTokens",
      "outputs": [],
      "stateMutability": "nonpayable",
      "type": "function"
    },
    {
      "inputs": [
        {
          "internalType": "address",
          "name": "owner",
          "type": "address"
        }
      ],
      "name": "getTokenBalance",
      "outputs": [
        {
          "internalType": "uint256",
          "name": "",
          "type": "uint256"
        }
      ],
      "stateMutability": "view",
      "type": "function",
      "constant": true
    },
    {
      "inputs": [
        {
          "internalType": "int256",
          "name": "x",
          "type": "int256"
        }
      ],
      "name": "absoluteValue",
      "outputs": [
        {
          "internalType": "uint256",
          "name": "",
          "type": "uint256"
        }
      ],
      "stateMutability": "pure",
      "type": "function",
      "constant": true
    }
  ],
  "bytecode": "0x60806040523480156200001157600080fd5b506040516200222238038062002222833981810160405281019062000037919062000149565b336000806101000a81548173ffffffffffffffffffffffffffffffffffffffff021916908373ffffffffffffffffffffffffffffffffffffffff16021790555080600160006101000a81548173ffffffffffffffffffffffffffffffffffffffff021916908373ffffffffffffffffffffffffffffffffffffffff1602179055504260028190555060006003819055506103e86004819055506032600581905550506200017b565b600080fd5b600073ffffffffffffffffffffffffffffffffffffffff82169050919050565b60006200011182620000e4565b9050919050565b620001238162000104565b81146200012f57600080fd5b50565b600081519050620001438162000118565b92915050565b600060208284031215620001625762000161620000df565b5b6000620001728482850162000132565b91505092915050565b612097806200018b6000396000f3fe608060405234801561001057600080fd5b50600436106100f55760003560e01c80639d1b464a11610097578063b2016bd411610066578063b2016bd414610264578063bec3fa1714610282578063e149e7b01461029e578063f851a440146102ce576100f5565b80639d1b464a14610204578063a126d60114610222578063aaa5a2ad1461023e578063ab6d477814610248576100f5565b80635fbf81cc116100d35780635fbf81cc1461017857806393ca341514610194578063978bbdb9146101b257806399fbab88146101d0576100f5565b806329bc969d146100fa5780633aecd0e31461012a57806341d3c84c1461015a575b600080fd5b610114600480360381019061010f91906114be565b6102ec565b6040516101219190611504565b60405180910390f35b610144600480360381019061013f91906114be565b610304565b6040516101519190611538565b60405180910390f35b6101626103a9565b60405161016f9190611538565b60405180910390f35b610192600480360381019061018d91906115a4565b6103af565b005b61019c6106eb565b6040516101a99190611538565b60405180910390f35b6101ba6106f1565b6040516101c79190611538565b60405180910390f35b6101ea60048036038101906101e591906115f7565b6106f7565b6040516101fb9594939291906116f2565b60405180910390f35b61020c610777565b6040516102199190611538565b60405180910390f35b61023c600480360381019061023791906115f7565b61077d565b005b610246610f47565b005b610262600480360381019061025d91906115f7565b611085565b005b61026c611153565b60405161027991906117a4565b60405180910390f35b61029c600480360381019061029791906117bf565b611179565b005b6102b860048036038101906102b3919061182b565b61125c565b6040516102c59190611538565b60405180910390f35b6102d6611280565b6040516102e39190611858565b60405180910390f35b60076020528060005260406000206000915090505481565b6000600160009054906101000a900473ffffffffffffffffffffffffffffffffffffffff1673ffffffffffffffffffffffffffffffffffffffff166370a08231836040518263ffffffff1660e01b81526004016103619190611858565b602060405180830381865afa15801561037e573d6000803e3d6000fd5b505050506040513d601f19601f820116820180604052508101906103a29190611888565b9050919050565b60035481565b600083116103f2576040517f08c379a00000000000000000000000000000000000000000000000000000000081526004016103e990611912565b60405180910390fd5b60008211610435576040517f08c379a000000000000000000000000000000000000000000000000000000000815260040161042c906119a4565b60405180910390fd5b6000600181111561044957610448611633565b5b81600181111561045c5761045b611633565b5b148061048b575060018081111561047657610475611633565b5b81600181111561048957610488611633565b5b145b6104ca576040517f08c379a00000000000000000000000000000000000000000000000000000000081526004016104c190611a10565b60405180910390fd5b600082846104d89190611a5f565b905060066040518060a001604052803373ffffffffffffffffffffffffffffffffffffffff16815260200186815260200185815260200184600181111561052257610521611633565b5b81526020016000600181111561053b5761053a611633565b5b815250908060018154018082558091505060019003906000526020600020906004020160009091909190915060008201518160000160006101000a81548173ffffffffffffffffffffffffffffffffffffffff021916908373ffffffffffffffffffffffffffffffffffffffff160217905550602082015181600101556040820151816002015560608201518160030160006101000a81548160ff021916908360018111156105ed576105ec611633565b5b021790555060808201518160030160016101000a81548160ff0219169083600181111561061d5761061c611633565b5b0217905550505080600760003373ffffffffffffffffffffffffffffffffffffffff1673ffffffffffffffffffffffffffffffffffffffff16815260200190815260200160002060008282546106739190611aa1565b925050819055506000600160068054905061068e9190611ae5565b90503373ffffffffffffffffffffffffffffffffffffffff167f22525261af7a4917e8be47f89149ad7abb0d81058d0a105e9756a4e40bd5b2e8828787876040516106dc9493929190611b19565b60405180910390a25050505050565b60025481565b60055481565b6006818154811061070757600080fd5b90600052602060002090600402016000915090508060000160009054906101000a900473ffffffffffffffffffffffffffffffffffffffff16908060010154908060020154908060030160009054906101000a900460ff16908060030160019054906101000a900460ff16905085565b60045481565b60068054905081106107c4576040517f08c379a00000000000000000000000000000000000000000000000000000000081526004016107bb90611baa565b60405180910390fd5b6000600682815481106107da576107d9611bca565b5b906000526020600020906004020190503373ffffffffffffffffffffffffffffffffffffffff168160000160009054906101000a900473ffffffffffffffffffffffffffffffffffffffff1673ffffffffffffffffffffffffffffffffffffffff161461087c576040517f08c379a000000000000000000000000000000000000000000000000000000000815260040161087390611c6b565b60405180910390fd5b600060018111156108905761088f611633565b5b8160030160019054906101000a900460ff1660018111156108b4576108b3611633565b5b146108f4576040517f08c379a00000000000000000000000000000000000000000000000000000000081526004016108eb90611cd7565b60405180910390fd5b60008160010154905060008260020154905060008360030160009054906101000a900460ff1690506000610927866112a4565b9050600061093487611387565b90506000610941886113d6565b90506000612710600554846109569190611a5f565b6109609190611d26565b9050600081856109709190611d57565b905081600760008060009054906101000a900473ffffffffffffffffffffffffffffffffffffffff1673ffffffffffffffffffffffffffffffffffffffff1673ffffffffffffffffffffffffffffffffffffffff16815260200190815260200160002060008282546109e29190611aa1565b925050819055506000816109f590611d9a565b905060008286610a059190611aa1565b9050858486610a149190611de2565b1115610af75785600760003373ffffffffffffffffffffffffffffffffffffffff1673ffffffffffffffffffffffffffffffffffffffff1681526020019081526020016000206000828254610a699190611d57565b925050819055508583610a7c9190611aa1565b600760008060009054906101000a900473ffffffffffffffffffffffffffffffffffffffff1673ffffffffffffffffffffffffffffffffffffffff1673ffffffffffffffffffffffffffffffffffffffff1681526020019081526020016000206000828254610aeb9190611aa1565b92505081905550610c2a565b6000831315610b5b5785600760003373ffffffffffffffffffffffffffffffffffffffff1673ffffffffffffffffffffffffffffffffffffffff1681526020019081526020016000206000828254610b4f9190611d57565b92505081905550610bb2565b80600760003373ffffffffffffffffffffffffffffffffffffffff1673ffffffffffffffffffffffffffffffffffffffff1681526020019081526020016000206000828254610baa9190611d57565b925050819055505b81600760008060009054906101000a900473ffffffffffffffffffffffffffffffffffffffff1673ffffffffffffffffffffffffffffffffffffffff1673ffffffffffffffffffffffffffffffffffffffff1681526020019081526020016000206000828254610c229190611aa1565b925050819055505b89600454610c389190611a5f565b600760003373ffffffffffffffffffffffffffffffffffffffff1673ffffffffffffffffffffffffffffffffffffffff1681526020019081526020016000206000828254610c869190611aa1565b925050819055506000600760003373ffffffffffffffffffffffffffffffffffffffff1673ffffffffffffffffffffffffffffffffffffffff168152602001908152602001600020541215610d9957600760003373ffffffffffffffffffffffffffffffffffffffff1673ffffffffffffffffffffffffffffffffffffffff16815260200190815260200160002054610d1e90611d9a565b600760008060009054906101000a900473ffffffffffffffffffffffffffffffffffffffff1673ffffffffffffffffffffffffffffffffffffffff1673ffffffffffffffffffffffffffffffffffffffff1681526020019081526020016000206000828254610d8d9190611d57565b92505081905550610e50565b600760003373ffffffffffffffffffffffffffffffffffffffff1673ffffffffffffffffffffffffffffffffffffffff16815260200190815260200160002054600760008060009054906101000a900473ffffffffffffffffffffffffffffffffffffffff1673ffffffffffffffffffffffffffffffffffffffff1673ffffffffffffffffffffffffffffffffffffffff1681526020019081526020016000206000828254610e489190611aa1565b925050819055505b6000600760003373ffffffffffffffffffffffffffffffffffffffff1673ffffffffffffffffffffffffffffffffffffffff168152602001908152602001600020819055503373ffffffffffffffffffffffffffffffffffffffff167f0657ca74d3c423c82ac61c84019026720ba0aa095787904277eb95642b701b5e8d8c8c8c88604051610ee3959493929190611e16565b60405180910390a2600160068d81548110610f0157610f00611bca565b5b906000526020600020906004020160030160016101000a81548160ff02191690836001811115610f3457610f33611633565b5b0217905550505050505050505050505050565b600060025442610f579190611ae5565b905060008111610f9c576040517f08c379a0000000000000000000000000000000000000000000000000000000008152600401610f9390611eb5565b60405180910390fd5b60006201518082600354600680549050610fb69190611a5f565b610fc09190611a5f565b610fca9190611d26565b905080600760008060009054906101000a900473ffffffffffffffffffffffffffffffffffffffff1673ffffffffffffffffffffffffffffffffffffffff1673ffffffffffffffffffffffffffffffffffffffff168152602001908152602001600020600082825461103c9190611aa1565b925050819055507f7052e674e5d83ba741a3bc9f3675ddb61e9472cf8470386d1c2a21ed9c0b87fc816040516110729190611538565b60405180910390a1426002819055505050565b60008054906101000a900473ffffffffffffffffffffffffffffffffffffffff1673ffffffffffffffffffffffffffffffffffffffff163373ffffffffffffffffffffffffffffffffffffffff1614611113576040517f08c379a000000000000000000000000000000000000000000000000000000000815260040161110a90611f47565b60405180910390fd5b60006004549050816004819055506000600254426111319190611ae5565b9050600081111561114e57611146818361141d565b426002819055505b505050565b600160009054906101000a900473ffffffffffffffffffffffffffffffffffffffff1681565b600160009054906101000a900473ffffffffffffffffffffffffffffffffffffffff1673ffffffffffffffffffffffffffffffffffffffff1663a9059cbb83836040518363ffffffff1660e01b81526004016111d6929190611f67565b6020604051808303816000875af11580156111f5573d6000803e3d6000fd5b505050506040513d601f19601f820116820180604052508101906112199190611fc8565b611258576040517f08c379a000000000000000000000000000000000000000000000000000000000815260040161124f90612041565b60405180910390fd5b5050565b600080821215611277578161127090611d9a565b905061127b565b8190505b919050565b60008054906101000a900473ffffffffffffffffffffffffffffffffffffffff1681565b600080600683815481106112bb576112ba611bca565b5b9060005260206000209060040201905060008160010154905060008260020154905060008360030160009054906101000a900460ff1690506000600181111561130757611306611633565b5b81600181111561131a57611319611633565b5b0361135757818360045461132e9190611a5f565b6113389190611d26565b836113439190611ae5565b61134c90611d9a565b945050505050611382565b81836004546113669190611a5f565b6113709190611d26565b8361137b9190611ae5565b9450505050505b919050565b6000806006838154811061139e5761139d611bca565b5b9060005260206000209060040201905060008160010154905060008260020154905081816113cc9190611a5f565b9350505050919050565b600080600683815481106113ed576113ec611bca565b5b90600052602060002090600402019050600081600101549050806004546114149190611a5f565b92505050919050565b6004548262015180836004546114339190611ae5565b61143d9190611a5f565b6114479190611d26565b6114519190611d26565b6003819055505050565b600080fd5b600073ffffffffffffffffffffffffffffffffffffffff82169050919050565b600061148b82611460565b9050919050565b61149b81611480565b81146114a657600080fd5b50565b6000813590506114b881611492565b92915050565b6000602082840312156114d4576114d361145b565b5b60006114e2848285016114a9565b91505092915050565b6000819050919050565b6114fe816114eb565b82525050565b600060208201905061151960008301846114f5565b92915050565b6000819050919050565b6115328161151f565b82525050565b600060208201905061154d6000830184611529565b92915050565b61155c8161151f565b811461156757600080fd5b50565b60008135905061157981611553565b92915050565b6002811061158c57600080fd5b50565b60008135905061159e8161157f565b92915050565b6000806000606084860312156115bd576115bc61145b565b5b60006115cb8682870161156a565b93505060206115dc8682870161156a565b92505060406115ed8682870161158f565b9150509250925092565b60006020828403121561160d5761160c61145b565b5b600061161b8482850161156a565b91505092915050565b61162d81611480565b82525050565b7f4e487b7100000000000000000000000000000000000000000000000000000000600052602160045260246000fd5b6002811061167357611672611633565b5b50565b600081905061168482611662565b919050565b600061169482611676565b9050919050565b6116a481611689565b82525050565b600281106116bb576116ba611633565b5b50565b60008190506116cc826116aa565b919050565b60006116dc826116be565b9050919050565b6116ec816116d1565b82525050565b600060a0820190506117076000830188611624565b6117146020830187611529565b6117216040830186611529565b61172e606083018561169b565b61173b60808301846116e3565b9695505050505050565b6000819050919050565b600061176a61176561176084611460565b611745565b611460565b9050919050565b600061177c8261174f565b9050919050565b600061178e82611771565b9050919050565b61179e81611783565b82525050565b60006020820190506117b96000830184611795565b92915050565b600080604083850312156117d6576117d561145b565b5b60006117e4858286016114a9565b92505060206117f58582860161156a565b9150509250929050565b611808816114eb565b811461181357600080fd5b50565b600081359050611825816117ff565b92915050565b6000602082840312156118415761184061145b565b5b600061184f84828501611816565b91505092915050565b600060208201905061186d6000830184611624565b92915050565b60008151905061188281611553565b92915050565b60006020828403121561189e5761189d61145b565b5b60006118ac84828501611873565b91505092915050565b600082825260208201905092915050565b7f53697a65206d7573742062652067726561746572207468616e20300000000000600082015250565b60006118fc601b836118b5565b9150611907826118c6565b602082019050919050565b6000602082019050818103600083015261192b816118ef565b9050919050565b7f456e747279207072696365206d7573742062652067726561746572207468616e60008201527f2030000000000000000000000000000000000000000000000000000000000000602082015250565b600061198e6022836118b5565b915061199982611932565b604082019050919050565b600060208201905081810360008301526119bd81611981565b9050919050565b7f496e76616c696420736964650000000000000000000000000000000000000000600082015250565b60006119fa600c836118b5565b9150611a05826119c4565b602082019050919050565b60006020820190508181036000830152611a29816119ed565b9050919050565b7f4e487b7100000000000000000000000000000000000000000000000000000000600052601160045260246000fd5b6000611a6a8261151f565b9150611a758361151f565b9250828202611a838161151f565b91508282048414831517611a9a57611a99611a30565b5b5092915050565b6000611aac826114eb565b9150611ab7836114eb565b925082820190508281121560008312168382126000841215161715611adf57611ade611a30565b5b92915050565b6000611af08261151f565b9150611afb8361151f565b9250828203905081811115611b1357611b12611a30565b5b92915050565b6000608082019050611b2e6000830187611529565b611b3b6020830186611529565b611b486040830185611529565b611b55606083018461169b565b95945050505050565b7f506f736974696f6e20646f6573206e6f74206578697374000000000000000000600082015250565b6000611b946017836118b5565b9150611b9f82611b5e565b602082019050919050565b60006020820190508181036000830152611bc381611b87565b9050919050565b7f4e487b7100000000000000000000000000000000000000000000000000000000600052603260045260246000fd5b7f4f6e6c7920746865206f776e65722063616e20636c6f73652074686520706f7360008201527f6974696f6e000000000000000000000000000000000000000000000000000000602082015250565b6000611c556025836118b5565b9150611c6082611bf9565b604082019050919050565b60006020820190508181036000830152611c8481611c48565b9050919050565b7f5468697320706f736974696f6e20697320616c726561647920636c6f73656400600082015250565b6000611cc1601f836118b5565b9150611ccc82611c8b565b602082019050919050565b60006020820190508181036000830152611cf081611cb4565b9050919050565b7f4e487b7100000000000000000000000000000000000000000000000000000000600052601260045260246000fd5b6000611d318261151f565b9150611d3c8361151f565b925082611d4c57611d4b611cf7565b5b828204905092915050565b6000611d62826114eb565b9150611d6d836114eb565b9250828203905081811260008412168282136000851215161715611d9457611d93611a30565b5b92915050565b6000611da5826114eb565b91507f80000000000000000000000000000000000000000000000000000000000000008203611dd757611dd6611a30565b5b816000039050919050565b6000611ded8261151f565b9150611df88361151f565b9250828201905080821115611e1057611e0f611a30565b5b92915050565b600060a082019050611e2b6000830188611529565b611e386020830187611529565b611e456040830186611529565b611e52606083018561169b565b611e5f60808301846114f5565b9695505050505050565b7f4e6f742074696d6520666f722066756e64696e67207061796d656e7420796574600082015250565b6000611e9f6020836118b5565b9150611eaa82611e69565b602082019050919050565b60006020820190508181036000830152611ece81611e92565b9050919050565b7f4f6e6c792061646d696e2063616e2075706461746520696e646578207072696360008201527f6500000000000000000000000000000000000000000000000000000000000000602082015250565b6000611f316021836118b5565b9150611f3c82611ed5565b604082019050919050565b60006020820190508181036000830152611f6081611f24565b9050919050565b6000604082019050611f7c6000830185611624565b611f896020830184611529565b9392505050565b60008115159050919050565b611fa581611f90565b8114611fb057600080fd5b50565b600081519050611fc281611f9c565b92915050565b600060208284031215611fde57611fdd61145b565b5b6000611fec84828501611fb3565b91505092915050565b7f546f6b656e207472616e73666572206661696c65640000000000000000000000600082015250565b600061202b6015836118b5565b915061203682611ff5565b602082019050919050565b6000602082019050818103600083015261205a8161201e565b905091905056fea264697066735822122079e3c8d5489acb83e0d6fab7f7addcbd9b330895aa731b6d97e76f6e7f2ede3664736f6c63430008110033",
  "immutableReferences": {},
  "source": "// SPDX-License-Identifier: MIT\r\npragma solidity ^0.8.17;\r\n\r\nimport \"./IXRC20.sol\";\r\n\r\ncontract PerpetualDEX {\r\n    address public admin;\r\n    IXRC20 public collateralToken;\r\n    uint256 public lastFundingTimestamp;\r\n    uint256 public fundingRate;\r\n    uint256 public currentPrice;\r\n    uint256 public feeRate; // Trading fee rate, e.g., 0.005 for 0.5%\r\n\r\n    enum Side { LONG, SHORT }\r\n    enum State { OPEN, CLOSED }\r\n\r\n    struct Position {\r\n        address trader;\r\n        uint256 size;\r\n        uint256 entryPrice;\r\n        Side side;\r\n        State state;\r\n    }\r\n\r\n    Position[] public positions;\r\n    mapping(address => int256) public collateralBalances;\r\n\r\n    event PositionOpened(address indexed trader, uint256 positionId, uint256 size, uint256 entryPrice, Side side);\r\n    event PositionClosed(address indexed trader, uint256 positionId, uint256 size, uint256 entryPrice, Side side, int256 profit);\r\n    event FundingPaid(uint256 fundingPayment);\r\n\r\n    constructor(address _collateralToken) {\r\n        admin = msg.sender;\r\n        collateralToken = IXRC20(_collateralToken);\r\n        lastFundingTimestamp = block.timestamp;\r\n        fundingRate = 0;\r\n        currentPrice = 1000; // Initial index price\r\n        feeRate = 50; // 0.5% fee\r\n    }\r\n\r\n    function openPosition(uint256 size, uint256 entryPrice, Side side) external {\r\n        require(size > 0, \"Size must be greater than 0\");\r\n        require(entryPrice > 0, \"Entry price must be greater than 0\");\r\n        require(side == Side.LONG || side == Side.SHORT, \"Invalid side\");\r\n\r\n        // Calculate collateral required\r\n        uint256 collateralRequired = (size * entryPrice);\r\n\r\n        positions.push(Position({\r\n            trader: msg.sender,\r\n            size: size,\r\n            entryPrice: entryPrice,\r\n            side: side,\r\n            state: State.OPEN\r\n        }));\r\n\r\n        collateralBalances[msg.sender] += int256(collateralRequired);\r\n\r\n        uint256 positionId = positions.length - 1;\r\n        emit PositionOpened(msg.sender, positionId, size, entryPrice, side);\r\n    }\r\n\r\n    function closePosition(uint256 positionId) external {\r\n        require(positionId < positions.length, \"Position does not exist\");\r\n\r\n        Position storage position = positions[positionId];\r\n        require(position.trader == msg.sender, \"Only the owner can close the position\");\r\n        require(position.state == State.OPEN, \"This position is already closed\");\r\n\r\n        uint256 size = position.size;\r\n        uint256 entryPrice = position.entryPrice;\r\n        Side side = position.side;\r\n\r\n        int256 pnl = calculateProfitAndLoss(positionId);\r\n        uint256 initialCost = getCostOfOpeningPosition(positionId);\r\n        uint256 currentCost = getCurrentCostOfClosingPosition(positionId);\r\n        uint256 fee = (initialCost * feeRate) / 1e4;\r\n        int256 profit = pnl - int256(fee);\r\n        collateralBalances[admin] += int256(fee);\r\n        \r\n        int256 adminGets = -profit;\r\n        int256 traderGets = int256(initialCost) + profit;\r\n        /* if(traderGets > 0){\r\n            collateralToken.transfer(msg.sender, absoluteValue(traderGets));\r\n        } */\r\n        // liquidation\r\n        if((currentCost + fee) > initialCost){\r\n            collateralBalances[msg.sender] -= int256(initialCost);\r\n            collateralBalances[admin] += profit + int256(initialCost);\r\n        } else\r\n        {\r\n            if(profit > 0)\r\n                collateralBalances[msg.sender] -= int256(initialCost);\r\n            else {\r\n                collateralBalances[msg.sender] -= traderGets;\r\n            }\r\n\r\n            collateralBalances[admin] += adminGets;\r\n        }\r\n\r\n        collateralBalances[msg.sender] += int256(currentPrice * size);\r\n        \r\n        if(collateralBalances[msg.sender] < 0) {\r\n            collateralBalances[admin] -= -collateralBalances[msg.sender];\r\n        } else {\r\n            collateralBalances[admin] += collateralBalances[msg.sender];\r\n        }\r\n        collateralBalances[msg.sender] = 0;\r\n\r\n        emit PositionClosed(msg.sender, positionId, size, entryPrice, side, profit);\r\n\r\n        positions[positionId].state = State.CLOSED;\r\n    }\r\n\r\n    function calculateProfitAndLoss(uint256 positionId) internal view returns (int256) {\r\n        Position storage position = positions[positionId];\r\n        uint256 size = position.size;\r\n        uint256 entryPrice = position.entryPrice;\r\n        Side side = position.side;\r\n\r\n        if (side == Side.LONG) {\r\n            return -int256(size - (currentPrice*size)/entryPrice);\r\n        } else {\r\n            return int256(size - (currentPrice*size)/entryPrice);\r\n        }\r\n    }\r\n\r\n    function getCostOfOpeningPosition(uint256 positionId) internal view returns (uint256) {\r\n        Position storage position = positions[positionId];\r\n        uint256 size = position.size;\r\n        uint256 entryPrice = position.entryPrice;\r\n        return entryPrice * size;\r\n    }\r\n\r\n    function getCurrentCostOfClosingPosition(uint256 positionId) internal view returns (uint256) {\r\n        Position storage position = positions[positionId];\r\n        uint256 size = position.size;\r\n        return currentPrice * size;\r\n    }\r\n\r\n    // TODO: move to GoPlugin Oracle using IPriceOracle interface\r\n    function updatecurrentPrice(uint256 newPrice) external {\r\n        require(msg.sender == admin, \"Only admin can update index price\");\r\n        uint256 previousPrice = currentPrice;\r\n        currentPrice = newPrice;\r\n        uint256 timeElapsed = block.timestamp - lastFundingTimestamp;\r\n        if (timeElapsed > 0) {\r\n            updateFundingRate(timeElapsed, previousPrice);\r\n            lastFundingTimestamp = block.timestamp;\r\n        }\r\n    }\r\n\r\n    function updateFundingRate(uint256 timeElapsed, uint256 previousPrice) internal {\r\n        // Implement a mechanism to calculate and update the funding rate based on timeElapsed.\r\n        // Formula: fundingRate = (currentPrice - previouscurrentPrice) / previouscurrentPrice * 86400 / timeElapsed\r\n        fundingRate = (currentPrice  - previousPrice) * 86400 / timeElapsed / currentPrice;\r\n    }\r\n\r\n    function payFunding() external {\r\n        uint256 timeElapsed = block.timestamp - lastFundingTimestamp;\r\n        require(timeElapsed > 0, \"Not time for funding payment yet\");\r\n        uint256 fundingPayment = (positions.length * fundingRate * timeElapsed) / 86400;\r\n        collateralBalances[admin] += int256(fundingPayment);\r\n        emit FundingPaid(fundingPayment);\r\n        lastFundingTimestamp = block.timestamp;\r\n    }\r\n\r\n    function transferTokens(address to, uint256 value) public {\r\n        require(collateralToken.transfer(to, value), \"Token transfer failed\");\r\n    }\r\n\r\n    function getTokenBalance(address owner) public view returns (uint256) {\r\n        return collateralToken.balanceOf(owner);\r\n    }\r\n\r\n    function absoluteValue(int256 x) public pure returns (uint256) {\r\n        if (x < 0) {\r\n            return uint256(-x);\r\n        }\r\n        return uint256(x); \r\n    }\r\n}",
  "sourcePath": "C:\\development\\ebc\\blockchain-contracts\\contracts\\PerpectualDex.sol",
  "compiler": {
    "name": "solc",
    "version": "0.8.17+commit.8df45f5f.Emscripten.clang"
  },
  "schemaVersion": "3.4.11",
  "updatedAt": "2023-10-26T06:36:37.544Z",
  "networkType": "ethereum",
  "devdoc": {
    "kind": "dev",
    "methods": {},
    "version": 1
  },
  "userdoc": {
    "kind": "user",
    "methods": {},
    "version": 1
  }
}