{
  "contractName": "PerpetualDEX",
  "abi": [
    {
      "inputs": [
        {
          "internalType": "address",
          "name": "_collateralToken",
          "type": "address"
        }
      ],
      "stateMutability": "nonpayable",
      "type": "constructor"
    },
    {
      "anonymous": false,
      "inputs": [
        {
          "indexed": false,
          "internalType": "uint256",
          "name": "fundingPayment",
          "type": "uint256"
        }
      ],
      "name": "FundingPaid",
      "type": "event"
    },
    {
      "anonymous": false,
      "inputs": [
        {
          "indexed": true,
          "internalType": "address",
          "name": "trader",
          "type": "address"
        },
        {
          "indexed": false,
          "internalType": "uint256",
          "name": "positionId",
          "type": "uint256"
        },
        {
          "indexed": false,
          "internalType": "uint256",
          "name": "size",
          "type": "uint256"
        },
        {
          "indexed": false,
          "internalType": "uint256",
          "name": "entryPrice",
          "type": "uint256"
        },
        {
          "indexed": false,
          "internalType": "enum PerpetualDEX.Side",
          "name": "side",
          "type": "uint8"
        },
        {
          "indexed": false,
          "internalType": "uint256",
          "name": "profit",
          "type": "uint256"
        }
      ],
      "name": "PositionClosed",
      "type": "event"
    },
    {
      "anonymous": false,
      "inputs": [
        {
          "indexed": true,
          "internalType": "address",
          "name": "trader",
          "type": "address"
        },
        {
          "indexed": false,
          "internalType": "uint256",
          "name": "positionId",
          "type": "uint256"
        },
        {
          "indexed": false,
          "internalType": "uint256",
          "name": "size",
          "type": "uint256"
        },
        {
          "indexed": false,
          "internalType": "uint256",
          "name": "entryPrice",
          "type": "uint256"
        },
        {
          "indexed": false,
          "internalType": "enum PerpetualDEX.Side",
          "name": "side",
          "type": "uint8"
        }
      ],
      "name": "PositionOpened",
      "type": "event"
    },
    {
      "inputs": [],
      "name": "admin",
      "outputs": [
        {
          "internalType": "address",
          "name": "",
          "type": "address"
        }
      ],
      "stateMutability": "view",
      "type": "function"
    },
    {
      "inputs": [
        {
          "internalType": "address",
          "name": "",
          "type": "address"
        }
      ],
      "name": "collateralBalances",
      "outputs": [
        {
          "internalType": "uint256",
          "name": "",
          "type": "uint256"
        }
      ],
      "stateMutability": "view",
      "type": "function"
    },
    {
      "inputs": [],
      "name": "collateralToken",
      "outputs": [
        {
          "internalType": "contract IERC20",
          "name": "",
          "type": "address"
        }
      ],
      "stateMutability": "view",
      "type": "function"
    },
    {
      "inputs": [],
      "name": "feeRate",
      "outputs": [
        {
          "internalType": "uint256",
          "name": "",
          "type": "uint256"
        }
      ],
      "stateMutability": "view",
      "type": "function"
    },
    {
      "inputs": [],
      "name": "fundingRate",
      "outputs": [
        {
          "internalType": "uint256",
          "name": "",
          "type": "uint256"
        }
      ],
      "stateMutability": "view",
      "type": "function"
    },
    {
      "inputs": [],
      "name": "indexPrice",
      "outputs": [
        {
          "internalType": "uint256",
          "name": "",
          "type": "uint256"
        }
      ],
      "stateMutability": "view",
      "type": "function"
    },
    {
      "inputs": [],
      "name": "lastFundingTimestamp",
      "outputs": [
        {
          "internalType": "uint256",
          "name": "",
          "type": "uint256"
        }
      ],
      "stateMutability": "view",
      "type": "function"
    },
    {
      "inputs": [
        {
          "internalType": "uint256",
          "name": "",
          "type": "uint256"
        }
      ],
      "name": "positions",
      "outputs": [
        {
          "internalType": "address",
          "name": "trader",
          "type": "address"
        },
        {
          "internalType": "uint256",
          "name": "size",
          "type": "uint256"
        },
        {
          "internalType": "uint256",
          "name": "entryPrice",
          "type": "uint256"
        },
        {
          "internalType": "enum PerpetualDEX.Side",
          "name": "side",
          "type": "uint8"
        }
      ],
      "stateMutability": "view",
      "type": "function"
    },
    {
      "inputs": [
        {
          "internalType": "uint256",
          "name": "size",
          "type": "uint256"
        },
        {
          "internalType": "uint256",
          "name": "entryPrice",
          "type": "uint256"
        },
        {
          "internalType": "enum PerpetualDEX.Side",
          "name": "side",
          "type": "uint8"
        }
      ],
      "name": "openPosition",
      "outputs": [],
      "stateMutability": "nonpayable",
      "type": "function"
    },
    {
      "inputs": [
        {
          "internalType": "uint256",
          "name": "positionId",
          "type": "uint256"
        }
      ],
      "name": "closePosition",
      "outputs": [],
      "stateMutability": "nonpayable",
      "type": "function"
    },
    {
      "inputs": [
        {
          "internalType": "uint256",
          "name": "newPrice",
          "type": "uint256"
        }
      ],
      "name": "updateIndexPrice",
      "outputs": [],
      "stateMutability": "nonpayable",
      "type": "function"
    },
    {
      "inputs": [],
      "name": "payFunding",
      "outputs": [],
      "stateMutability": "nonpayable",
      "type": "function"
    }
  ],
  "bytecode": "0x608060405234801562000010575f80fd5b506040516200186b3803806200186b833981810160405281019062000036919062000141565b335f806101000a81548173ffffffffffffffffffffffffffffffffffffffff021916908373ffffffffffffffffffffffffffffffffffffffff1602179055508060015f6101000a81548173ffffffffffffffffffffffffffffffffffffffff021916908373ffffffffffffffffffffffffffffffffffffffff160217905550426002819055505f6003819055506103e86004819055506101f46005819055505062000171565b5f80fd5b5f73ffffffffffffffffffffffffffffffffffffffff82169050919050565b5f6200010b82620000e0565b9050919050565b6200011d81620000ff565b811462000128575f80fd5b50565b5f815190506200013b8162000112565b92915050565b5f60208284031215620001595762000158620000dc565b5b5f62000168848285016200012b565b91505092915050565b6116ec806200017f5f395ff3fe608060405234801561000f575f80fd5b50600436106100b2575f3560e01c8063978bbdb91161006f578063978bbdb91461017857806399fbab8814610196578063a126d601146101c9578063aaa5a2ad146101e5578063b2016bd4146101ef578063f851a4401461020d576100b2565b80630ac02555146100b657806310bace8c146100d257806329bc969d146100f057806341d3c84c146101205780635fbf81cc1461013e57806393ca34151461015a575b5f80fd5b6100d060048036038101906100cb9190610e38565b61022b565b005b6100da6102ed565b6040516100e79190610e72565b60405180910390f35b61010a60048036038101906101059190610ee5565b6102f3565b6040516101179190610e72565b60405180910390f35b610128610308565b6040516101359190610e72565b60405180910390f35b61015860048036038101906101539190610f33565b61030e565b005b610162610692565b60405161016f9190610e72565b60405180910390f35b610180610698565b60405161018d9190610e72565b60405180910390f35b6101b060048036038101906101ab9190610e38565b61069e565b6040516101c09493929190611005565b60405180910390f35b6101e360048036038101906101de9190610e38565b610704565b005b6101ed610b21565b005b6101f7610c58565b60405161020491906110a3565b60405180910390f35b610215610c7d565b60405161022291906110bc565b60405180910390f35b5f8054906101000a900473ffffffffffffffffffffffffffffffffffffffff1673ffffffffffffffffffffffffffffffffffffffff163373ffffffffffffffffffffffffffffffffffffffff16146102b8576040517f08c379a00000000000000000000000000000000000000000000000000000000081526004016102af90611155565b60405180910390fd5b806004819055505f600254426102ce91906111a0565b90505f8111156102e9576102e181610ca0565b426002819055505b5050565b60045481565b6007602052805f5260405f205f915090505481565b60035481565b5f8311610350576040517f08c379a00000000000000000000000000000000000000000000000000000000081526004016103479061121d565b60405180910390fd5b5f8211610392576040517f08c379a0000000000000000000000000000000000000000000000000000000008152600401610389906112ab565b60405180910390fd5b5f60018111156103a5576103a4610f92565b5b8160018111156103b8576103b7610f92565b5b14806103e757506001808111156103d2576103d1610f92565b5b8160018111156103e5576103e4610f92565b5b145b610426576040517f08c379a000000000000000000000000000000000000000000000000000000000815260040161041d90611313565b60405180910390fd5b5f670de0b6b3a7640000600454848661043f9190611331565b6104499190611331565b610453919061139f565b90508060075f3373ffffffffffffffffffffffffffffffffffffffff1673ffffffffffffffffffffffffffffffffffffffff1681526020019081526020015f205410156104d5576040517f08c379a00000000000000000000000000000000000000000000000000000000081526004016104cc90611419565b60405180910390fd5b600660405180608001604052803373ffffffffffffffffffffffffffffffffffffffff16815260200186815260200185815260200184600181111561051d5761051c610f92565b5b815250908060018154018082558091505060019003905f5260205f2090600402015f909190919091505f820151815f015f6101000a81548173ffffffffffffffffffffffffffffffffffffffff021916908373ffffffffffffffffffffffffffffffffffffffff16021790555060208201518160010155604082015181600201556060820151816003015f6101000a81548160ff021916908360018111156105c8576105c7610f92565b5b021790555050508060075f3373ffffffffffffffffffffffffffffffffffffffff1673ffffffffffffffffffffffffffffffffffffffff1681526020019081526020015f205f82825461061b91906111a0565b925050819055505f600160068054905061063591906111a0565b90503373ffffffffffffffffffffffffffffffffffffffff167f22525261af7a4917e8be47f89149ad7abb0d81058d0a105e9756a4e40bd5b2e8828787876040516106839493929190611437565b60405180910390a25050505050565b60025481565b60055481565b600681815481106106ad575f80fd5b905f5260205f2090600402015f91509050805f015f9054906101000a900473ffffffffffffffffffffffffffffffffffffffff1690806001015490806002015490806003015f9054906101000a900460ff16905084565b600680549050811061074b576040517f08c379a0000000000000000000000000000000000000000000000000000000008152600401610742906114c4565b60405180910390fd5b5f600682815481106107605761075f6114e2565b5b905f5260205f20906004020190503373ffffffffffffffffffffffffffffffffffffffff16815f015f9054906101000a900473ffffffffffffffffffffffffffffffffffffffff1673ffffffffffffffffffffffffffffffffffffffff16146107fe576040517f08c379a00000000000000000000000000000000000000000000000000000000081526004016107f59061157f565b60405180910390fd5b5f816001015490505f826002015490505f836003015f9054906101000a900460ff1690505f61082c86610d05565b90505f612710600554836108409190611331565b61084a919061139f565b90505f818361085991906111a0565b9050670de0b6b3a764000060045487876108739190611331565b61087d9190611331565b610887919061139f565b60075f3373ffffffffffffffffffffffffffffffffffffffff1673ffffffffffffffffffffffffffffffffffffffff1681526020019081526020015f205f8282546108d2919061159d565b925050819055508160075f805f9054906101000a900473ffffffffffffffffffffffffffffffffffffffff1673ffffffffffffffffffffffffffffffffffffffff1673ffffffffffffffffffffffffffffffffffffffff1681526020019081526020015f205f828254610945919061159d565b925050819055503373ffffffffffffffffffffffffffffffffffffffff167f3c35f9aeba0e938ec1359b8abda46ace45b198167ad7fea0dd1fca3742244274898888888660405161099a9594939291906115d0565b60405180910390a2600660016006805490506109b691906111a0565b815481106109c7576109c66114e2565b5b905f5260205f209060040201600689815481106109e7576109e66114e2565b5b905f5260205f2090600402015f82015f9054906101000a900473ffffffffffffffffffffffffffffffffffffffff16815f015f6101000a81548173ffffffffffffffffffffffffffffffffffffffff021916908373ffffffffffffffffffffffffffffffffffffffff1602179055506001820154816001015560028201548160020155600382015f9054906101000a900460ff16816003015f6101000a81548160ff02191690836001811115610aa057610a9f610f92565b5b02179055509050506006805480610aba57610ab9611621565b5b600190038181905f5260205f2090600402015f8082015f6101000a81549073ffffffffffffffffffffffffffffffffffffffff0219169055600182015f9055600282015f9055600382015f6101000a81549060ff0219169055505090555050505050505050565b5f60025442610b3091906111a0565b90505f8111610b74576040517f08c379a0000000000000000000000000000000000000000000000000000000008152600401610b6b90611698565b60405180910390fd5b5f6201518082600354600680549050610b8d9190611331565b610b979190611331565b610ba1919061139f565b90508060075f805f9054906101000a900473ffffffffffffffffffffffffffffffffffffffff1673ffffffffffffffffffffffffffffffffffffffff1673ffffffffffffffffffffffffffffffffffffffff1681526020019081526020015f205f828254610c0f919061159d565b925050819055507f7052e674e5d83ba741a3bc9f3675ddb61e9472cf8470386d1c2a21ed9c0b87fc81604051610c459190610e72565b60405180910390a1426002819055505050565b60015f9054906101000a900473ffffffffffffffffffffffffffffffffffffffff1681565b5f8054906101000a900473ffffffffffffffffffffffffffffffffffffffff1681565b6004548162015180670de0b6b3a7640000600454610cbe9190611331565b670de0b6b3a7640000600454610cd49190611331565b610cde91906111a0565b610ce89190611331565b610cf2919061139f565b610cfc919061139f565b60038190555050565b5f8060068381548110610d1b57610d1a6114e2565b5b905f5260205f20906004020190505f816001015490505f826002015490505f836003015f9054906101000a900460ff1690505f60045490505f6001811115610d6657610d65610f92565b5b826001811115610d7957610d78610f92565b5b03610dbf57670de0b6b3a76400008484610d939190611331565b8583610d9f9190611331565b610da991906111a0565b610db3919061139f565b95505050505050610dfc565b670de0b6b3a76400008482610dd49190611331565b8585610de09190611331565b610dea91906111a0565b610df4919061139f565b955050505050505b919050565b5f80fd5b5f819050919050565b610e1781610e05565b8114610e21575f80fd5b50565b5f81359050610e3281610e0e565b92915050565b5f60208284031215610e4d57610e4c610e01565b5b5f610e5a84828501610e24565b91505092915050565b610e6c81610e05565b82525050565b5f602082019050610e855f830184610e63565b92915050565b5f73ffffffffffffffffffffffffffffffffffffffff82169050919050565b5f610eb482610e8b565b9050919050565b610ec481610eaa565b8114610ece575f80fd5b50565b5f81359050610edf81610ebb565b92915050565b5f60208284031215610efa57610ef9610e01565b5b5f610f0784828501610ed1565b91505092915050565b60028110610f1c575f80fd5b50565b5f81359050610f2d81610f10565b92915050565b5f805f60608486031215610f4a57610f49610e01565b5b5f610f5786828701610e24565b9350506020610f6886828701610e24565b9250506040610f7986828701610f1f565b9150509250925092565b610f8c81610eaa565b82525050565b7f4e487b71000000000000000000000000000000000000000000000000000000005f52602160045260245ffd5b60028110610fd057610fcf610f92565b5b50565b5f819050610fe082610fbf565b919050565b5f610fef82610fd3565b9050919050565b610fff81610fe5565b82525050565b5f6080820190506110185f830187610f83565b6110256020830186610e63565b6110326040830185610e63565b61103f6060830184610ff6565b95945050505050565b5f819050919050565b5f61106b61106661106184610e8b565b611048565b610e8b565b9050919050565b5f61107c82611051565b9050919050565b5f61108d82611072565b9050919050565b61109d81611083565b82525050565b5f6020820190506110b65f830184611094565b92915050565b5f6020820190506110cf5f830184610f83565b92915050565b5f82825260208201905092915050565b7f4f6e6c792061646d696e2063616e2075706461746520696e64657820707269635f8201527f6500000000000000000000000000000000000000000000000000000000000000602082015250565b5f61113f6021836110d5565b915061114a826110e5565b604082019050919050565b5f6020820190508181035f83015261116c81611133565b9050919050565b7f4e487b71000000000000000000000000000000000000000000000000000000005f52601160045260245ffd5b5f6111aa82610e05565b91506111b583610e05565b92508282039050818111156111cd576111cc611173565b5b92915050565b7f53697a65206d7573742062652067726561746572207468616e203000000000005f82015250565b5f611207601b836110d5565b9150611212826111d3565b602082019050919050565b5f6020820190508181035f830152611234816111fb565b9050919050565b7f456e747279207072696365206d7573742062652067726561746572207468616e5f8201527f2030000000000000000000000000000000000000000000000000000000000000602082015250565b5f6112956022836110d5565b91506112a08261123b565b604082019050919050565b5f6020820190508181035f8301526112c281611289565b9050919050565b7f496e76616c6964207369646500000000000000000000000000000000000000005f82015250565b5f6112fd600c836110d5565b9150611308826112c9565b602082019050919050565b5f6020820190508181035f83015261132a816112f1565b9050919050565b5f61133b82610e05565b915061134683610e05565b925082820261135481610e05565b9150828204841483151761136b5761136a611173565b5b5092915050565b7f4e487b71000000000000000000000000000000000000000000000000000000005f52601260045260245ffd5b5f6113a982610e05565b91506113b483610e05565b9250826113c4576113c3611372565b5b828204905092915050565b7f496e73756666696369656e7420636f6c6c61746572616c0000000000000000005f82015250565b5f6114036017836110d5565b915061140e826113cf565b602082019050919050565b5f6020820190508181035f830152611430816113f7565b9050919050565b5f60808201905061144a5f830187610e63565b6114576020830186610e63565b6114646040830185610e63565b6114716060830184610ff6565b95945050505050565b7f506f736974696f6e20646f6573206e6f742065786973740000000000000000005f82015250565b5f6114ae6017836110d5565b91506114b98261147a565b602082019050919050565b5f6020820190508181035f8301526114db816114a2565b9050919050565b7f4e487b71000000000000000000000000000000000000000000000000000000005f52603260045260245ffd5b7f4f6e6c7920746865206f776e65722063616e20636c6f73652074686520706f735f8201527f6974696f6e000000000000000000000000000000000000000000000000000000602082015250565b5f6115696025836110d5565b91506115748261150f565b604082019050919050565b5f6020820190508181035f8301526115968161155d565b9050919050565b5f6115a782610e05565b91506115b283610e05565b92508282019050808211156115ca576115c9611173565b5b92915050565b5f60a0820190506115e35f830188610e63565b6115f06020830187610e63565b6115fd6040830186610e63565b61160a6060830185610ff6565b6116176080830184610e63565b9695505050505050565b7f4e487b71000000000000000000000000000000000000000000000000000000005f52603160045260245ffd5b7f4e6f742074696d6520666f722066756e64696e67207061796d656e74207965745f82015250565b5f6116826020836110d5565b915061168d8261164e565b602082019050919050565b5f6020820190508181035f8301526116af81611676565b905091905056fea2646970667358221220561bcb86f99426ad56c1afa5b8960949cdce64dcb5794acb098b3164da87b50664736f6c63430008140033",
  "immutableReferences": {},
  "source": "pragma solidity ^0.8.20;\r\n\r\nimport \"@openzeppelin/contracts/token/ERC20/IERC20.sol\";\r\n\r\ncontract PerpetualDEX {\r\n    address public admin;\r\n    IERC20 public collateralToken;\r\n    uint256 public lastFundingTimestamp;\r\n    uint256 public fundingRate;\r\n    uint256 public indexPrice;\r\n    uint256 public feeRate; // Trading fee rate, e.g., 0.005 for 0.5%\r\n\r\n    enum Side { LONG, SHORT }\r\n\r\n    struct Position {\r\n        address trader;\r\n        uint256 size;\r\n        uint256 entryPrice;\r\n        Side side;\r\n    }\r\n\r\n    Position[] public positions;\r\n    mapping(address => uint256) public collateralBalances;\r\n\r\n    event PositionOpened(address indexed trader, uint256 positionId, uint256 size, uint256 entryPrice, Side side);\r\n    event PositionClosed(address indexed trader, uint256 positionId, uint256 size, uint256 entryPrice, Side side, uint256 profit);\r\n    event FundingPaid(uint256 fundingPayment);\r\n\r\n    constructor(address _collateralToken) {\r\n        admin = msg.sender;\r\n        collateralToken = IERC20(_collateralToken);\r\n        lastFundingTimestamp = block.timestamp;\r\n        fundingRate = 0;\r\n        indexPrice = 1000; // Initial index price\r\n        feeRate = 500; // 0.5% fee\r\n    }\r\n\r\n    function openPosition(uint256 size, uint256 entryPrice, Side side) external {\r\n        require(size > 0, \"Size must be greater than 0\");\r\n        require(entryPrice > 0, \"Entry price must be greater than 0\");\r\n        require(side == Side.LONG || side == Side.SHORT, \"Invalid side\");\r\n\r\n        // Calculate collateral required\r\n        uint256 collateralRequired = (size * entryPrice) * indexPrice / 1e18;\r\n\r\n        require(collateralBalances[msg.sender] >= collateralRequired, \"Insufficient collateral\");\r\n\r\n        positions.push(Position({\r\n            trader: msg.sender,\r\n            size: size,\r\n            entryPrice: entryPrice,\r\n            side: side\r\n        }));\r\n\r\n        collateralBalances[msg.sender] -= collateralRequired;\r\n\r\n        uint256 positionId = positions.length - 1;\r\n        emit PositionOpened(msg.sender, positionId, size, entryPrice, side);\r\n    }\r\n\r\n    function closePosition(uint256 positionId) external {\r\n        require(positionId < positions.length, \"Position does not exist\");\r\n\r\n        Position storage position = positions[positionId];\r\n        require(position.trader == msg.sender, \"Only the owner can close the position\");\r\n\r\n        uint256 size = position.size;\r\n        uint256 entryPrice = position.entryPrice;\r\n        Side side = position.side;\r\n\r\n        uint256 pnl = calculateProfitAndLoss(positionId);\r\n\r\n        uint256 fee = (pnl * feeRate) / 1e4;\r\n        uint256 profit = pnl - fee;\r\n\r\n        collateralBalances[msg.sender] += (entryPrice * size * indexPrice) / 1e18;\r\n        collateralBalances[admin] += fee;\r\n\r\n        emit PositionClosed(msg.sender, positionId, size, entryPrice, side, profit);\r\n\r\n        // Remove the closed position by moving the last position to this index and truncating the array\r\n        positions[positionId] = positions[positions.length - 1];\r\n        positions.pop();\r\n    }\r\n\r\n    function calculateProfitAndLoss(uint256 positionId) internal view returns (uint256) {\r\n        Position storage position = positions[positionId];\r\n        uint256 size = position.size;\r\n        uint256 entryPrice = position.entryPrice;\r\n        Side side = position.side;\r\n\r\n        uint256 currentPrice = indexPrice; // Replace with a real price source.\r\n\r\n        if (side == Side.LONG) {\r\n            return (currentPrice * size - entryPrice * size) / 1e18;\r\n        } else {\r\n            return (entryPrice * size - currentPrice * size) / 1e18;\r\n        }\r\n    }\r\n\r\n    function updateIndexPrice(uint256 newPrice) external {\r\n        require(msg.sender == admin, \"Only admin can update index price\");\r\n        indexPrice = newPrice;\r\n        uint256 timeElapsed = block.timestamp - lastFundingTimestamp;\r\n        if (timeElapsed > 0) {\r\n            updateFundingRate(timeElapsed);\r\n            lastFundingTimestamp = block.timestamp;\r\n        }\r\n    }\r\n\r\n    function updateFundingRate(uint256 timeElapsed) internal {\r\n        // Implement a mechanism to calculate and update the funding rate based on timeElapsed.\r\n        // This is a placeholder for educational purposes.\r\n        // Formula: fundingRate = (indexPrice - previousIndexPrice) / previousIndexPrice * 86400 / timeElapsed\r\n        fundingRate = (indexPrice * 1e18 - indexPrice * 1e18) * 86400 / timeElapsed / indexPrice;\r\n    }\r\n\r\n    function payFunding() external {\r\n        uint256 timeElapsed = block.timestamp - lastFundingTimestamp;\r\n        require(timeElapsed > 0, \"Not time for funding payment yet\");\r\n        uint256 fundingPayment = (positions.length * fundingRate * timeElapsed) / 86400;\r\n        collateralBalances[admin] += fundingPayment;\r\n        emit FundingPaid(fundingPayment);\r\n        lastFundingTimestamp = block.timestamp;\r\n    }\r\n}",
  "sourcePath": "C:\\development\\ebc\\blockchain-contracts\\contracts\\PerpectualDex.sol",
  "compiler": {
    "name": "solc",
    "version": "0.8.20+commit.a1b79de6.Emscripten.clang"
  },
  "schemaVersion": "3.4.11",
  "updatedAt": "2023-10-24T14:44:33.880Z",
  "devdoc": {
    "kind": "dev",
    "methods": {},
    "version": 1
  },
  "userdoc": {
    "kind": "user",
    "methods": {},
    "version": 1
  }
}